:100000002100FFFFFFFFFFFFFFFFFFFFFFFFFFFFDD
:10001000FFFFFFFFFFFFFFFFFFFFFFFFFFFFFFFFF0
:10002000FFFFFFFFFFFFFFFFFFFFFFFFFFFFFFFFE0
:10003000FFFFFFFFFFFFFFFFFFFFFFFFFFFFFFFFD0
:10004000FFFFFFC0E012026BD0E032FFFFFFFFFFB7
:10005000FFFFFFFFFFFFFFFFFFFFFFFFFFFFFFFFB0
:10006000FFFFFFFFFFFFFFFFFFFFFFFFFFFFFFFFA0
:10007000FFFFFFFFFFFFFFFFFFFFFFFFFFFFFFFF90
:100100001204E412016F12016F12058A12064012E6
:1001100006401202531202387F027E047540FA1222
:10012000015CDEF8DFF41203E612017C80EA80FE57
:100130001205977401B54623E547B4310312015205
:10014000B43203120155B43303120158B42A0C021D
:10015000015B02015B02015B02015B22758CFC7595
:100160008A17D28C308DFDC28CC28DD540EE22759F
:10017000110175120190068F120455227511017537
:10018000120112050E8552101204B61204D1751018
:100190003A12046885511012049B1204D175103A6A
:1001A00012046885501012049B1204D17511027557
:1001B000120112050E85541012049B1204D1751001
:1001C0002F12046885551012049B1204D175102F4C
:1001D00012046885561012049B1204D1E553940151
:1001E0006025E55394026026E55394036027E553A8
:1001F00094046028E55394056029E5539406602A29
:10020000E5539407602B229006B8120455229006FD
:10021000BF120455229006C6120455229006CD1234
:100220000455229006D4120455229006DB12045580
:10023000229006E2120455227550007551597552EC
:10024000237553017554317555127556177557003E
:100250001203CA75A80075B10075890175934175BF
:10026000B20275B30275B102D2AF22E59403120255
:10027000F202030700020312000203200002032C13
:100280000002033800020343000203700002037DF2
:1002900000020380000203920002039F000203B7E2
:1002A000000202F1000202F1000202F1000202F17A
:1002B000000202F1000202F1000202F1000202F16A
:1002C000000202F1000202F1000202F1000202F15A
:1002D000000202F1000202F1000202F1000202F14A
:1002E000000202F1000202F1000202F1000202F13A
:1002F0000032D083D0822582F58250067401258396
:10030000F583C082C08322E5935410F593C2700236
:1003100002F1D2707595D0E59354E7F5930202F19E
:100320007595D1E59354E7F5930202F1856895E55B
:100330009354C7F5930202F1E59354D74410F59313
:100340000202F1D5661BD5670DE59354D74410F52D
:1003500093C2700202F1E59354E74420F593020240
:10036000F1A8698695E59354C7F59305690202F1F2
:10037000E59354D74410F593C2700202F10202F1E2
:10038000E59354C7D5670454FB80024404F59302F7
:1003900002F1E59354D74410F593C2700202F1A81C
:1003A00069A695E59354C7D5670454FB80024404BD
:1003B000F59305690202F1A869A695E59354D7441F
:1003C00010F5930569C2700202F17568007566093F
:1003D000756701756950E5934420F59375400A12DD
:1003E000015C2070FD2275680075660175670875EF
:1003F0006950E5934420F59375400A12015C207022
:10040000FD22C291740EF5C512041A85C53075C55A
:10041000AA12041A85C51FD29122E5C4548060FA3D
:100420002222D2AFD2AC438780439B1E759AB2750D
:10043000985022851B992275A80075B100E5B24439
:1004400004F5B2D29175C3BCE5C34440F5C375B1A0
:100450000075A810227800E893B43B028009F510DB
:1004600012046808E880F022D2A5C2A6E510F58043
:10047000D2A700C2A71205610513227515007516D3
:1004800000751700E51075F00A8485F0157002807C
:100490000975F00A8485F01680002275150075161E
:1004A00000AE10740F5EF515AE1074F05E0303031A
:1004B00003F516800022751500751600AE10740F36
:1004C0005EF515AE1074305E03030303F51680006D
:1004D00022E5162430F510120468E5152430F510D5
:1004E0001204682212061BC2A5C2A6C2A700751379
:1004F0008012050775100212054D75103C12054D4E
:1005000075100C12054D2275100112054D2279004F
:10051000E511B4010479808010B4020479C0800927
:10052000B403047994800279E7A812D80280030901
:1005300080F989138910C2A5C2A6E510F5801206BC
:1005400013D2A700C2A712057512060E22C2A5C2B9
:10055000A6E510F580D2A700C2A712061312061353
:1005600022D2A5C2A6E510F580D2A700C2A7120527
:100570007512060E22D2A7C2A5D2A6D287C2A700A4
:10058000D2A72087F8C2A7C2A622754801754700E6
:1005900075460075B0FF2290068BC2A030A149308D
:1005A000934B30924D30904FD2A0900687C2A4302A
:1005B000A13630933830923A30903CD2A4900683E2
:1005C000C2A330A123309325309227309029D2A3A3
:1005D00090067FC2A230A110309312309214309056
:1005E00016D2A27548008025740093800F74019381
:1005F000800A74029380057403938000754600F8A6
:100600007400B548087548018847754601227F285F
:10061000DFFE227E3212060EDEFB227D0A12061358
:10062000DDFB227C3212061BDCFB227B031206233D
:10063000DBFB2278157AF57BF7DBFEDAFAD8F622B7
:1006400078087AF57BF7DBFEDAFAD8F62278027AB8
:10065000F57BF7DBFEDAFAD8F62278017AF57BF73C
:10066000DBFEDAFAD8F62278FFD8FE2212066712ED
:100670000667120667120667120667120667222AC5
:1006800030234437383943343536423132334174BC
:100690003820202020202020202020202020202042
:1006A000202020202020202020202020202020204A
:1006B000202020202020203B202D20444F4D3B2077
:1006C0002D205345473B202D205445523B202D20C3
:1006D0005155413B202D205155493B202D2053455C
:1006E000583B202D205341423BFFFFFFFFFFFFFF00
:1006F000FFFFFFFFFFFFFFFFFFFFFFFFFFFFFFFF0A
:00000001FF
