:10505000F580C2A5C2A6D2A700C2A71250DC22C00A
:10506000047C00EC9360061250700C80F6D0042291
:10507000C2A7F580D2A5C2A6D2A700C2A71250E847
:1050800022C2A7C2A5C2A6740AF580D2A700C2A7F1
:105090001250D0740CF580D2A700C2A71250D07461
:1050A00001F580D2A700C2A71250D07402F580D2B9
:1050B000A700C2A71250D0743CF580D2A700C2A7A7
:1050C0001250DC740FF580D2A700C2A71250DC2268
:1050D000C0077F451250DCDFFBD00722C0077F02EC
:1050E0001250E8DFFBD00722C0077F20DFFED00789
:0150F000229D
:03000000020100FA
:03000B000206D515
:03001B000206C614
:0300430002073879
:10010000125081C278D2C0D2C1D27B75743275933D
:100110004043B10275B20075B302758911758C0048
:10012000758A00758DB1758BDFD2ABC28CC28ED251
:10013000A975B708D2AF1205BCD28C120806E573B8
:10014000642A6008E5736423600780EF1202A580CB
:10015000EA12015680E5C27B12508174802403129A
:100160005050E55AC454032430125070E55A540FCD
:100170002430125070743A125070E559C4540F2450
:1001800030125070E559540F2430125070743A12E6
:100190005070E558C454072430125070E558540F7D
:1001A0002430125070120806E57364236008E5736A
:1001B000642A600880EF125081D27B22C28C748046
:1001C0002403125050746812507074681250707486
:1001D0003A125070746D125070746D125070743AFF
:1001E00012507074731250707473125070748024B3
:1001F00003125050120806C3E573940350F6AD7312
:10020000E5732430125070120806ED6402601FC3BB
:10021000E573940A50F1AC73E57324301250707496
:100220003A125070EDC454304CF55A020237C3E50F
:1002300073940450D280DF120806C3E5739406500D
:10024000F6AD73E5732430125070120806C3E573DF
:10025000940A50F6AC73E5732430125070743A125D
:100260005070EDC44CF55902026A120806C3E573DA
:10027000940650F6AD73E5732430125070120806E0
:10028000C3E573940A50F6AC73E5732430125070D2
:10029000EDC44CF558754908757058757103120511
:1002A00059D28C21B6C28CC27C7480240312505067
:1002B00074681250707468125070743A12507074EE
:1002C0006D125070746D125070743A1250707473D5
:1002D000125070747312507074C024011250507414
:1002E000441250707444125070742F125070744D38
:1002F000125070744D125070742F1250707441125D
:100300005070744112507074411250707441125008
:100310007074201250707457125070742012507004
:10032000742012507074802403125050120806C3B7
:10033000E573940350F6AD73E573243012507012D8
:100340000806ED6402601FC3E573940A50F1AC73B4
:10035000E5732430125070743A125070EDC454306A
:100360004CF55202036FC3E573940450D280DF1240
:100370000806C3E573940650F6AD73E57324301296
:100380005070120806C3E573940A50F6AC73E57317
:100390002430125070743A125070EDC44CF5510272
:1003A00003A2120806C3E573940650F6AD73E57315
:1003B0002430125070120806C3E573940A50F6AC4C
:1003C00073E5732430125070EDC44CF55074C024A2
:1003D00001125050120806C3E573940450F6AD7331
:1003E000E5732430125070120806ED64036022C3D6
:1003F000E573940A50F1E5734D60ECAC73E573243A
:1004000030125070742F125070EDC44CF554020429
:100410001AC3E573940250CF80DC120806C3E5735B
:10042000940250F6AD73E573243012507012080632
:10043000E5734D60B2ED75F00AA42573FC6402709B
:100440000FC3E554943050E5E55464297002D27C22
:10045000C3EC94084004ECC3940754016015E573A1
:100460002430125070742F125070EDC44573F5553E
:1004700002047BE554943150B480E3120806E5731E
:1004800060F9C3940350F4AD73E5732430125070D7
:10049000120806ED64016015E57354FE70F2207CCD
:1004A00014AC73E57324301250700204BDE573641C
:1004B0000970DD80ECE573640160D580E412080604
:1004C000EC64096018EC6401601DE573C3940A5084
:1004D000ECAB73E57324301250700204EDE5730049
:1004E000C3940740D880E5E57370D280DF12080618
:1004F000EC64016035E573C3940A50F1207C1AE581
:10050000732430125070EDC44CF55BEBC44573F5A9
:10051000567420125070020530EB75F00AA4257352
:1005200075F00484E5F070C580D5E57370BF80CFA9
:10053000120806E57360F9C3940850F4857353E517
:10054000732430125070754900E556F55C75705093
:1005500075710D120559D28C22C005C004C003ACC0
:10056000700571AD717B02C279C27AD27843932053
:100570002078FD307A068C708D71DBEDD003D004CD
:10058000D00522C006C005C004C003AC70AD71C365
:10059000E5499401F549AE497B02D279C27AD27815
:1005A0004393202078FD307A088C708D718E49DB62
:1005B000E9C279D003D004D005D006227550007569
:1005C00051007552007553017554017555017556EA
:1005D00070755B19755C707557007558007559001A
:1005E000755A0775705075710D754900B15922C063
:1005F0000174802403125050E552C4540324301275
:100600005070E552540F2430125070743A125070EA
:10061000E551C4540F2430125070E551540F24306A
:10062000125070743A125070E550C45407243012BE
:100630005070E550540F243012507074C0240112D1
:100640005050E554C4540F2430125070E554540FE8
:100650002430125070742F125070E555C4540F247A
:1006600030125070E555540F2430125070742F1210
:100670005070E55BC4540F2430125070E55B540F8A
:100680002430125070E556C4540F2430125070E5D7
:1006900056540F24301250707420125070C3A95356
:1006A000E970027901E9940840027907E9001475BC
:1006B000F004A49008852582F582E5833400F58353
:1006C00012505FD00122758DB1758BDFD574057521
:1006D0007432B2B632C0E0C0F0C0D0758C00758AFA
:1006E0000075490075705075710DB183E556600F46
:1006F000307B05B1EF120719D0D0D0F0D0E032E551
:1007000056655C60F3E55B2401D4F55B755C0030F5
:100710007B05B1EF12071980DFE552655A7011E5CC
:10072000516559700BE55065587005D28E0207313E
:1007300022120806C28ED2B6C0E0C0D0E59460474F
:10074000E59464086050E59464106052E594641880
:100750006054E5946420602FE59464286050E5942B
:1007600064306023E5946438601DE5946440606102
:10077000E59464486011E59464506065E5946458BC
:100780006075D0D0D0E0328594725393D7439310E4
:10079000C278D27A80EC7595D05393C780E4759572
:1007A000D15393C780DC8549955393C780D4207972
:1007B00018D5710A5393D7439310C27880C4A87098
:1007C00086955393C7057080B95393E74393208070
:1007D000B15393C7D571055393FB80A6439304800F
:1007E000A1A870A69505705393C7D571055393FBC7
:1007F0008090439304808BA870A6955393D3439322
:1008000010C2780207821208707590F79008AA301B
:10081000903630913B3092407590EF9008A7309021
:100820002730912C3092317590DF9008A4309018C9
:1008300030911D3092227590BF9008A13090093000
:10084000910E30921380BF22740293F573020860F8
:10085000740193F573020860740093F573020860E5
:100860001208703090FD3091FD3092FD1208702218
:10087000C0067EC812087CDEFBD00622C0077FFAC5
:10088000DFFED00722444F4D0053454700544552E8
:1008900000515541005155490053455800534142BC
:0D08A000000102030405060708092A0023D1
:00000001FF
